S01200006D6174726978646963652E73726563E8
S113000045C0000060C000005EC0000023C20000C4
S11300105AC0000058C0000056C0000054C0000080
S113002052C0000050C000004EC000004CC0000090
S11300304AC0000048C0000046C0000044C00000A0
S113004042C0000040C000003EC000003CC00000B0
S11300503AC0000038C0000036C0000034C00000C0
S113006032C0000030C000002EC000002CC00000D0
S11300702AC0000028C0000026C0000024C00000E0
S113008022C0000020C000001EC0000011241FBEBA
S1130090CFEFD0E1DEBFCDBF21E0AAE0B1E001C0E7
S11300A01D92A831B207E1F711E0A0E0B1E0EEE063
S11300B0FCE000E00BBF02C007900D92AA30B1072C
S11300C0D9F7F2D1A2C59CCFFC010FB6F894609188
S11300D014017091150180911601909117010FBEC2
S11300E0309721F0608371838283938308958FEF27
S11300F09FEF90930F0180930E0190930D018093D5
S11301000C0110920B0110920A0180E090E0DCDFF8
S1130110CB0113C5089580910C0190910D010895B0
S113012081E090E090930B0180930A01089502D539
S113013066E070E070D39C01019640910E015091ED
S11301400F018417950731F48130910511F401965C
S113015001C0C90190930F0180930E010895CF93BC
S1130160DF93EC0180E190E07DD3FC01C330D10545
S113017009F43FC034F4C130D10569F0229711F17C
S113018091C0C530D10509F460C00CF447C026976E
S113019009F472C087C0118210828CE090E09383CE
S11301A0828388E090E09583848397838683918714
S11301B08087938782878CE190E095878487178670
S11301C0168670C0118210828EE190E09383828340
S11301D020E130E0358324839783868322E030E076
S11301E031872087338722879587848717861686E9
S11301F059C0118210828EE190E09383828320E1C2
S113020030E035832483978386833187208733873F
S11302102287958784871786168644C011821082A8
S113022082E190E09383828395838483978386839A
S11302308EE190E09187808780E190E093878287C8
S113024095878487178616862DC0118210828EE1C9
S113025090E09383828322E030E035832483978384
S1130260868320E130E03187208733872287958792
S113027084871786168616C0118210828EE190E05C
S11302809383828322E030E03583248397838683BB
S113029022E130E03187208733872287958784875E
S11302A017861686CF01DF91CF910895843091058A
S11302B034F48230910544F4019779F00BC0843012
S11302C0910529F0079734F48EE190E0089582E1D6
S11302D090E0089580E090E008958CE090E0089527
S11302E08430910534F48230910544F4019779F017
S11302F00BC08430910529F0079734F48EE190E027
S1130300089580E190E0089580E090E008958CE104
S113031090E008950F931F93CF93DF9380910C0186
S113032090910D01892B09F060C080910A01909190
S11303300B01019709F459C0C0E0D0E001E010E0DE
S113034007C080910A0190910B01019709F44DC0F7
S1130350219719F561EE70E080E090E0E8D061EE5D
S113036070E08EE090E0E3D080910E0190910F0157
S11303709DDFBC0160547F4F82E090E0D8D0809133
S11303800E0190910F01ACDFBC0160547F4F8CE0F3
S113039090E0CDD0C0E0D0E01EC060E070E080E02E
S11303A090E0C5D060E070E08EE090E0C0D0809135
S11303B00E0190910F017ADFBC0182E090E0B7D08A
S11303C080910E0190910F018BDFBC018CE090E0D5
S11303D0AED0C02FD12F84EF91E0EAD080910C01F0
S11303E090910D01892B09F4ACCF05D0DF91CF9109
S11303F01F910F9108950F931F93CF93DF9381E083
S113040090E090930D0180930C0110920B011092D7
S11304100A01CEE2D0E00AE010E089DEA0DEA7D037
S1130420C801C6D0B801110F880B990B05D12DEC6A
S11304303CEC4CE85FE364D1CCD08B01219769F7A5
S113044010920D0110920C0165DFDF91CF911F9185
S11304500F9108951F920F920FB60F9211240BB6AD
S11304600F922F933F934F935F936F937F938F9349
S11304709F93AF93BF93EF93FF934DDE019709F0E2
S11304804FDEFF91EF91BF91AF919F918F917F913B
S11304906F915F914F913F912F910F900BBE0F90F1
S11304A00FBE0F901F90189511BAEAE6F0E0808114
S11304B08063808389B7846089BF78942AD048D0C8
S11304C016DE99DFFFCF1092710080E280937000F6
S11304D0089584EA80937400E4E7F0E0808188233F
S11304E0ECF708958093730084E880937400E4E744
S11304F0F0E080818823ECF70895CF93C82FE9DFDB
S113050080EEF0DF8C2FEEDF84E980937400CF91CE
S11305100895D9DF81E290E0F0DF80EA90E0EDDF3A
S113052083EE90E0EADF81E890E0E7CF0895CF938F
S1130530DF93D82FC62FCDDF80EED4DF8D2FD2DF0F
S11305408C2FD0DF84E980937400DF91CF910895DC
S1130550CF93DF93C0E0D0E060E070E0CE01E7DF4E
S11305602196CF30D105C1F7DF91CF910895EF9255
S1130570FF920F931F93CF93DF93E82EF92EE8DFBA
S11305800E2D1F2DC0E0D0E0F801619171918F0113
S1130590CE01CDDF2296C031D105B1F78E2D9F2D2E
S11305A0F9D1DF91CF911F910F91FF90EF900895B2
S11305B0181619066CF420E030E0EFECF7E0319700
S11305C0F1F700C000002F5F3F4F82179307A9F790
S11305D0089504D06894B1118DC0089570D088F046
S11305E09F5790F0B92F9927B751A0F0D1F0660F1B
S11305F0771F881F991F1AF0BA95C9F712C0B13036
S113060081F077D0B1E0089574C0672F782F8827E0
S1130610B85F39F0B93FCCF3869577956795B39574
S1130620D9F73EF490958095709561957F4F8F4FE3
S11306309F4F0895E89409C097FB3EF490958095E8
S1130640709561957F4F8F4F9F4F9923A9F0F92F94
S113065096E9BB279395F695879577956795B79512
S1130660F111F8CFFAF4BB0F11F460FF1BC06F5FF8
S11306707F4F8F4F9F4F16C0882311F096E911C00A
S1130680772321F09EE8872F762F05C0662371F02B
S113069096E8862F70E060E02AF09A95660F771F3F
S11306A0881FDAF7880F9695879597F9089557FD6F
S11306B09058440F551F59F05F3F71F04795880FCC
S11306C097FB991F61F09F3F79F087950895121663
S11306D013061406551FF2CF4695F1DF08C016160F
S11306E017061806991FF1CF8695710561050894C0
S11306F00895E894BB2766277727CB0197F90895D7
S11307000BD078C069D028F06ED018F0952309F08A
S11307105AC05FC01124EECFCADFA0F3959FD1F376
S1130720950F50E0551F629FF001729FBB27F00D9B
S1130730B11D639FAA27F00DB11DAA1F649F6627F0
S1130740B00DA11D661F829F2227B00DA11D621F3F
S1130750739FB00DA11D621F839FA00D611D221FF9
S1130760749F3327A00D611D231F849F600D211DDD
S1130770822F762F6A2F11249F5750408AF0E1F080
S113078088234AF0EE0FFF1FBB1F661F771F881FC9
S113079091505040A9F79E3F510570F014C0AACF64
S11307A05F3FECF3983EDCF3869577956795B795B4
S11307B0F795E7959F5FC1F7FE2B880F911D9695DE
S11307C0879597F9089597F99F6780E870E060E04E
S11307D008959FEF80EC089500240A9416161706D6
S11307E018060906089500240A941216130614061E
S11307F005060895092E0394000C11F4882352F081
S1130800BB0F40F4BF2B11F460FF04C06F5F7F4F38
S11308108F4F9F4F089597FB072E16F4009406D030
S113082077FD08D00BD007FC05D03EF49095819558
S11308309F4F0895709561957F4F0895AA1BBB1B28
S113084051E107C0AA1FBB1FA617B70710F0A61BCC
S1130850B70B881F991F5A95A9F780959095BC01ED
S1130860CD0108950F931F93CF93DF9382309105A9
S113087010F482E090E0E0911201F091130120E085
S113088030E0A0E0B0E0309719F14081518102815D
S1130890138148175907C8F08417950769F410970E
S11308A031F012960C93129713961C9327C0009361
S11308B012011093130122C02115310519F04217BA
S11308C0530718F49A01BD01EF01DF01F801DBCFF2
S11308D021153105F9F0281B390B2430310580F43A
S11308E08A819B816115710521F0FB0193838283C9
S11308F004C09093130180931201FE01329644C008
S1130900FE01E20FF31F8193919322503109398341
S113091028833AC02091100130911101232B41F416
S113092020910201309103013093110120931001B1
S113093020910001309101012115310541F42DB7B9
S11309403EB74091040150910501241B350BE09101
S11309501001F0911101E217F307A0F42E1B3F0BD5
S11309602817390778F0AC014E5F5F4F241735071D
S113097048F04E0F5F1F5093110140931001819373
S1130980919302C0E0E0F0E0CF01DF91CF911F919D
S11309900F910895CF93DF93009709F481C0FC0170
S11309A0329713821282A0911201B0911301109711
S11309B081F420813181820F931F209110013091A5
S11309C011012817390751F5F0931101E093100133
S11309D067C0ED0120E030E0CE17DF0740F44A8124
S11309E05B819E0141155105F1F0EA01F5CFD383F6
S11309F0C28340815181840F951FC817D90759F4C8
S1130A0088819981840F951F0296918380838A81BE
S1130A109B81938382832115310529F4F09313017B
S1130A20E09312013DC0E901FB83EA8349915991A6
S1130A30C40FD51FEC17FD0761F480819181840FE9
S1130A40951F0296E90199838883828193819B8310
S1130A508A83E0E0F0E012968D919C9113970097C1
S1130A6019F0FD01DC01F7CF8D919C9111979D0147
S1130A702E5F3F4F820F931F20911001309111017F
S1130A802817390769F4309729F41092130110924A
S1130A90120102C013821282B0931101A0931001BB
S1130AA0DF91CF9108958F929F92AF92BF92CF9290
S1130AB0DF92EF92FF92CF93DF93EC01688179810B
S1130AC08A819B81611571058105910521F464E298
S1130AD079ED8BE597E02DE133EF41E050E038D03C
S1130AE049015A019B01AC01A7EAB1E44DD06B0165
S1130AF07C01ACEEB4EFA501940152D0DC01CB0132
S1130B008C0D9D1DAE1DBF1DB7FF03C00197A1092C
S1130B10B04888839983AA83BB839F77DF91CF9161
S1130B20FF90EF90DF90CF90BF90AF909F908F9009
S1130B300895B9CF86E091E0B6CFA0E0B0E080930D
S1130B40060190930701A0930801B0930901089549
S1130B50052E97FB16F400940FD057FD05D024D032
S1130B6007FC02D046F408C0509540953095219575
S1130B703F4F4F4F5F4F08959095809570956195C5
S1130B807F4F8F4F9F4F089531D0A59F900DB49FF5
S1130B90900DA49F800D911D11240895B7FFF4CFEB
S1130BA0F3DF821B930B0895A1E21A2EAA1BBB1B31
S1130BB0FD010DC0AA1FBB1FEE1FFF1FA217B30725
S1130BC0E407F50720F0A21BB30BE40BF50B661F3B
S1130BD0771F881F991F1A9469F7609570958095FF
S1130BE090959B01AC01BD01CF010895A29FB00176
S1130BF0B39FC001A39F700D811D1124911DB29F4D
S1110C00700D811D1124911D0895F894FFCFED
S10D0C0E000018012000010000009E
S9030000FC
