S00F0000636F756E7465722E7372656315
S113000045C0000053C0000051C000004FC00000B4
S11300104DC000004BC0000049C0000047C00000B4
S113002045C0000043C00000CDC000003FC0000038
S11300303DC000003BC0000039C0000037C00000D4
S113004035C0000033C0000031C000002FC00000E4
S11300502DC000002BC0000029C0000027C00000F4
S113006025C0000023C0000021C000001FC0000004
S11300701DC000001BC0000019C0000017C0000014
S113008015C0000013C0000011C0000011241FBEE1
S1130090CFEFD0E1DEBFCDBF21E0A0E0B1E001C0F1
S11300A01D92A230B207E1F7AFD014C1A9CF672BDC
S11300B011F428E001C02CE0982F907F95BB95B3F4
S11300C0922B95BBEFECF7E03197F1F700C00000FD
S11300D094E095BBF0E18F9FC001112485BB85B3EB
S11300E0822B85BB8FEC97E00197F1F700C00000ED
S11300F015BA089560E070E081E0D9DF60E070E057
S113010088E0D5CF08958FEF84BB15BAF3DF60E0A4
S113011070E082E0CCDF60E070E088E2C8DF60E09D
S113012070E08CE0C4DF60E070E086E0C0DF60E097
S113013070E080E8BCCF0895EF92FF920F931F9375
S1130140CF93DF938C017C01C0E0D0E007C061E075
S113015070E0F70181917F01AADF2196F8010190F7
S11301600020E9F73197E01BF10BCE17DF0778F396
S1130170DF91CF911F910F91FF90EF9008950F930E
S11301801F93CF93DF938C016230710529F460E0F3
S113019070E080EC8CDF04C060E070E080E887DF12
S11301A01016110654F4C0E0D0E060E070E084E181
S11301B07EDF21960C171D07C1F7DF91CF911F91A8
S11301C00F9108951F920F920FB60F9211248F93DF
S11301D09F938091000190910101019690930101F8
S11301E0809300019F918F910F900FBE0F901F90ED
S11301F0189581E083BD87B7886087BF8FB7886013
S11302008FBF8FE185BD0895CF93DF93CDB7DEB760
S113021064970FB6F894DEBF0FBECDBF11BA8FEF4F
S11302208ABB71DFE6DF84B58BBB61E070E087E0F9
S113023090E0A5DF4AE0BE016F5F7F4F809100012F
S11302409091010114D078DF2FEF80E792E02150E4
S113025080409040E1F700C000008091000190913F
S1130260010101969093010180930001DCCFBB272B
S11302704A3031F4992322F4BDE2909581959F4F41
S113028001C0BB27FB015527AA27880F991FAA1F66
S1130290A41710F0A41B83955051B9F7A05DAA339D
S11302A008F0A95DA193009779F7B111B193119268
S11302B0CB0100C0DC01FC01672F71917723E1F7CA
S11302C0329704C07C916D9370836291AE17BF071F
S10B02D0C8F30895F894FFCF70
S9030000FC
